:100FDF002D002000534554483A202020430053450C
:100FEF00544C3A202020430054656D703A20202045
:100FFF0020204300534554483A2020005345544C79
:04100F003A20200063
:091157000117160116280114010C
:100BC100120E098E088F09850818850919C3E508D1
:100BD100648094805013C3E49509F509E49508F500
:100BE100087BFF7A0F79DF80067BFF7A0F79E1E4DA
:100BF100FD7F07120C9BAE08AF097C007D64120AD1
:100C010012EF2430F50AAE08AF097C007D64120AA8
:100C110012AA04AB057D0A7C00AF03AE02120A12D0
:100C2100EF2430F50B750C2E7D0A7C00AF03AE026C
:100C3100120A12ED2430F50DE4F50EFB7A00790A63
:100C4100FD7F08120C9BE51675F00A1209C52430C8
:100C5100F50AE51675F00A1209C5AFF0EF2430F573
:100C61000BE4F50CFB7A00790A7D017F05120C9BE0
:100C7100E51775F00A1209C52430F50AE51775F074
:100C81000A1209C5AFF0EF2430F50BE4F50CFB7A3D
:0A0C910000790A7D017F0E020C9B22
:020F1F008F0C35
:100F2100E514602530B40630B50320B21C7FE87E9D
:100F31000312114CE4F51420B2037F012220B40303
:100F41007F022220B50F7F032230B40930B506306D
:0E0F5100B203751401E50C60037514017F00F6
:010F5F00226F
:100AAB00E4FF120F1F8F08E5086401704E05151245
:100ABB001161E515B4010A7BFF7A0F79E3E4FD8040
:100ACB000EE515B4020C7BFF7A0F79ED7D01E4FF87
:100ADB008026E4F5157BFF7A0F79F7FD7F02120C68
:100AEB009B7BFF7A1079037D01E4FF120C9B7BFF4C
:100AFB007A10790B7D017F09120C9BE5156401704F
:100B0B0056E50824FD601304701E0516C3E5166434
:100B1B008094D04013751650800E1516D3E51664CD
:100B2B008094805003E4F516E51675F00A1209C59A
:100B3B002430F509E51675F00A1209C5AFF0EF245C
:100B4B0030F50AE4F50BFB7A007909FD7F06120CF0
:100B5B009BAD16E4FF805BE51564027058E5082435
:100B6B00FD601304701E0517C3E517648094D04015
:100B7B0013751750800E1517D3E5176480948050AA
:100B8B0003E4F517E51775F00A1209C52430F509CA
:100B9B00E51775F00A1209C5AFF0EF2430F50AE43A
:100BAB00F50BFB7A0079097D017F06120C9BAD17C3
:050BBB007F021210DEB4
:010BC0002212
:1010F700750832AF081508EF600BB2957F0A7E00BE
:0511070012114C80EE06
:01110C0022C0
:100E5500AF16EF3395E0FE7C007D0A120A00D3E55C
:100E6500199FE5189E4008D2A4D290D294801DAF58
:100E750017EF3395E0FE7C007D0A120A00C3E519E1
:100E85009FE5189E5009D2A4C290C2940210F7C2E1
:060E950090C2A4D29422D9
:100DB3007FFF121065EF64126017AD16E4FF121087
:100DC300DEAD177F021210DE7D127FFF1210DE8070
:100DD3000EE4FF1210658F167F021210658F177BCA
:100DE300FF7A0F79F7E4FD7F02120C9B7BFF7A10E9
:100DF30079037D01E4FF120C9B7BFF7A10790B7D55
:060E0300017F09020C9BB7
:1010C300C290C2A4D294121087120DB3E515700317
:0B10D300120BC1120AAB120E5580F187
:0B114C00EF1FAC0670011E4C70F62275
:100E9B00C2A58B807F017E00120EC4D2A77F057E78
:100EAB0000120EC4C2A7EBC454F0F5807F017E0084
:090EBB00120EC4D2A77F057E00CF
:100EC400D3EF9400EE9400400F7DC77C01DCFEDD7F
:080ED400FAEF1F70EB1E80E82D
:010EDC0022F3
:0C114000AB07C2A7C2A6120E9BC2A722DA
:0A110D00AB10AA11A9121209E7FFA6
:0C111700AB07C2A7D2A6120E9BC2A722F3
:101087007F321211407F281211407F0C1211407FCE
:0E109700061211407F011211407F80021140AD
:0A1161007F011211407F800211404F
:080C9B008F0F8B108A118912E2
:100CA300E4F513EDC39401503DAB10AA11A9121240
:100CB30009E7606FC37410950FC36480F8E513648C
:100CC3008098E51350062480250F8004250F24B057
:100CD300FF12114012110D74012512F512E43511A2
:100CE300F511051380C3AB10AA11A9121209E7600D
:100CF30032C37410950FC36480F8E513648098E5DC
:100D030013500624C0250F8004250F2470FF1211F1
:100D13004012110D74012512F512E43511F5110578
:030D23001380C377
:010D260022AA
:1010A500D3EF9400EE940040147D6E7C00ED1D702E
:0D10B500011CED4C70F7EF1F70E61E80E38C
:0110C200220B
:10101300C2B77F467E00EF1FAC0670011E4C70F610
:10102300D2B7E4FEFF30B7110FBF00010ED3EF9428
:0B10330088EE941340EF7F00227F0145
:01103E00228F
:0C0EDD001210137F017E001210A57FCCC4
:100EE900E4FBFAC2B70512E51270020511EF13927D
:100EF900B7751100751206E5121512AC11700215BD
:100F0900114C70F3D2B7EFC313FF0BBB00010AEB0F
:050F190064084A70CEDF
:010F1E0022B0
:100FA1007D087C00C2B70FBF0000D2B70FBF0000A1
:100FB1000FBF0000A2B7E433C43333335480FBE9DD
:100FC100C3134BF97E007F04EF1FAA0670011E4A6E
:0D0FD10070F6ED1D70011CED4C70C9AF01F4
:010FDE0022F0
:08117500120EDD7F44020EE9B9
:08117D00120EDD7FBE020EE937
:100E0900E4F50F12117512117D120FA18F10120F37
:100E1900A1EFD39407400B6307FF6310FFE4F50FBD
:100E29008003750F01EFFEE510FFAD07AC06EC126C
:100E3900090BE4FBFA7920783F120800120944E50E
:0B0E49000F600122C3E49FFFE49EFE47
:010E5400227B
:05113200121137D2A1EB
:081137007F017E02DEFEDFFAFB
:01113F00228D
:0F112300D2A0121132C2A0121137C2A10211378D
:0A116B00C2A0121132D2A002113707
:020F6000AD07DB
:100F6200E4FBFAEDC4131313540124FF92A0ED2500
:100F7200E0FD121132C2A11211370BBB08E5D2A05B
:100F8200121137D2A130A00F0AEAD394C840F6C298
:0E0F9200A11211377F0022C2A11211377F0178
:010FA000222E
:10103F00E4FDFCD2A0121137D2A1121137EC25E03A
:10104F00FCA2A0E4334204121137C2A11211370DD2
:05105F00BD08E5AF042F
:011064002269
:1010DE00AC05A9071211237FA0120F60AF01120FEA
:0910EE0060AF04120F6002116BE7
:02106500AC07D6
:101067001211237FA0120F60AF04120F6012112319
:0F1077007FA1120F6012103FAD0712116BAF0572
:011086002247
:10080000EC4D6011E8497017ED33EC3304600DE4F2
:10081000FCFFFEFD22E933E8330470F80209B01250
:10082000097B58046009E4CC248150062850090251
:1008300009BA2840030209B7C0E0EB4A7044B98006
:1008400006D0E0FB0209A6EF4E701CBD8008EBFF4E
:10085000EAFEE9FD80EBE98DF0A4FEE5F00208E98F
:10086000E9CDF9EAFEEBFFEF89F0A4FCE5F0CE89D3
:10087000F0A42EFFE435F0CD89F0A42DFEE435F090
:100880008067EF4E7005BD80D780C3EF8BF0A4ACBE
:10089000F0EE8BF0A42CFCE435F0F8EF8AF0A42CF9
:1008A000E5F038FCE433CB8DF0A42CFCE5F03BF80C
:1008B000EE8AF0A42CFCE5F038F8E433CF89F0A4FC
:1008C0002CFCE5F038CF3400CE89F0A42FFFE5F002
:1008D0003EFEE433C98DF0A42EFEE5F039CD8AF05A
:1008E000A42FFFE5F03EFEE43DFD33D0E0FB5007D2
:1008F0000BBB000F0209BAEC2CFCEF33FFEE33FE0A
:06090000ED33FD02099237
:1009060075F020800E75F010800575F0087D007E6C
:10091600007F003392D530D503120A48EC334010DD
:10092600EF33FFEE33FEED33FDEC33FCD5F0ED2275
:0E093600E5F0247EA2D513CC92E7CDCEFF22B1
:10094400EDD2E7CD33EC3392D524814006E4FFFEAB
:10095400FDFC22FCE4CFCECDCC24E0501174FF800A
:10096400EDC3CC13CCCD13CDCE13CECF13CF0470A7
:07097400F030D5DE020A4855
:10097B00E9D2E7C933E833F892D5EDD2E7CD33ECC2
:07098B0033FC5002B2D5223B
:10099200EC30E7100FBF000C0EBE00080DBD0004C6
:1009A2000BEB6014A2D5EB13FCED92E7FD2274FF72
:1009B200FCFDFEFF22E480F8A2D574FF13FC7D80CB
:0309C200E480EFDF
:03000000020D27C7
:0C0D2700787FE4F6D8FD758119020D6E8E
:1009C500C2D530F707B2D563F0FF05F030E70CB2BA
:1009D500D5F4048463F0FF05F080018430D502F47A
:0209E5000422EA
:1009E700BB010689828A83E0225002E722BBFE020E
:0909F700E32289828A83E4932241
:100A0000EF8DF0A4A8F0CF8CF0A428CE8DF0A42E0A
:020A1000FE22C4
:100A1200C2D5EC30E709B2D5E4C39DFDE49CFCEEFF
:100A220030E715B2D5E4C39FFFE49EFE120A56C317
:100A3200E49DFDE49CFC8003120A5630D507C3E412
:060A42009FFFE49EFE226E
:0E0A4800C3E49FFFE49EFEE49DFDE49CFC22BF
:100D33000210C3E493A3F8E493A34003F68001F203
:100D430008DFF48029E493A3F85407240CC8C333C1
:100D5300C4540F4420C8834004F456800146F6DF90
:100D6300E4800B0102040810204080901157E47EB8
:100D7300019360BCA3FF543F30E509541FFEE49385
:100D8300A360010ECF54C025E060A840B8E493A34C
:100D9300FAE493A3F8E493A3C8C582C8CAC583CA77
:100DA300F0A3C8C582C8CAC583CADFE9DEE780BE2F
:01116000008E
:100A5600BC000BBE0029EF8DF084FFADF022E4CC84
:100A6600F875F008EF2FFFEE33FEEC33FCEE9DEC4D
:100A7600984005FCEE9DFE0FD5F0E9E4CEFD22ED93
:100A8600F8F5F0EE8420D21CFEADF075F008EF2FDD
:100A9600FFED33FD4007985006D5F0F222C398FDCE
:050AA6000FD5F0EA226B
:00000001FF
